:08047B001204891202D680FB75
:05048300031100000060
:04041A007F057E00DC
:10041E00D3EF9400EE940040147D997C03ED1D7093
:0D042E00011CED4C70F7EF1F70E61E80E31F
:01043B00229E
:0D046D007F327E00EF1F70011EEF4E70F712
:01047A00225F
:100003008B0E8A0F89100510E5107002050F14F985
:1000130012043CF52030070FD2B5000000000000A9
:100023000000C2B500800AD2B50000C2B5000000CE
:100033000030060FD2B50000000000000000C2B57A
:1000430000800AD2B50000C2B50000000030050FE1
:10005300D2B50000000000000000C2B500800AD243
:10006300B50000C2B50000000030040FD2B5000097
:10007300000000000000C2B500800AD2B50000C233
:10008300B50000000030030FD2B5000000000000EF
:100093000000C2B500800AD2B50000C2B50000005E
:1000A3000030020FD2B50000000000000000C2B50E
:1000B30000800AD2B50000C2B50000000030010F75
:1000C300D2B50000000000000000C2B500800AD2D3
:1000D300B50000C2B50000000030000FD2B500002B
:1000E300000000000000C2B500800AD2B50000C2C3
:1000F300B500000000AB0E0510E510AA0F70020555
:100103000F14F912043CF52030070FD2B50000009C
:100113000000000000C2B500800AD2B50000C2B5DD
:100123000000000030060FD2B50000000000000000
:1001330000C2B500800AD2B50000C2B500000000BD
:1001430030050FD2B50000000000000000C2B5006A
:10015300800AD2B50000C2B50000000030040FD2FF
:10016300B50000000000000000C2B500800AD2B54F
:100173000000C2B50000000030030FD2B50000003C
:100183000000000000C2B500800AD2B50000C2B56D
:100193000000000030020FD2B50000000000000094
:1001A30000C2B500800AD2B50000C2B5000000004D
:1001B30030010FD2B50000000000000000C2B500FE
:1001C300800AD2B50000C2B50000000030000FD293
:1001D300B50000000000000000C2B500800AD2B5DF
:1001E3000000C2B500000000AB0EAA0FA910120454
:1001F3003CF52030070FD2B50000000000000000DE
:10020300C2B500800AD2B50000C2B50000000030BC
:10021300060FD2B50000000000000000C2B5008048
:100223000AD2B50000C2B50000000030050FD2B5F8
:100233000000000000000000C2B500800AD2B50033
:1002430000C2B50000000030040FD2B5000000006A
:1002530000000000C2B500800AD2B50000C2B5009C
:1002630000000030030FD2B50000000000000000C2
:10027300C2B500800AD2B50000C2B500000000304C
:10028300020FD2B50000000000000000C2B50080DC
:100293000AD2B50000C2B50000000030010FD2B58C
:1002A3000000000000000000C2B500800AD2B500C3
:1002B30000C2B50000000030000ED2B500000000FF
:1002C30000000000C2B50022D2B50000C2B5000094
:0302D30000002206
:0404890075BB4022DD
:06045500AF09AD0BAB0D79
:10045B008D118F128B1312046D7B007A00791102B0
:02046B0000038C
:1002D600750800750964E4F50AF50B120455120455
:1002E6001A050BE50B7002050AC39464E50A94002F
:1002F60040E975080075096412045512041AE509E7
:10030600150970021508D3E5099400E50894005014
:10031600E7E4F50CF50D12045512041A050DE50D6A
:100326007002050CC39464E50C940040E9750A005C
:10033600750B6412045512041AE50B150B700215A1
:100346000AD3E50B9400E50A940050E7E4F508F5B6
:100356000912045512041A0509E50970020508C3B5
:100366009464E508940040E9750C00750D64120468
:100376005512041AE50D150D7002150CD3E50D94F2
:0703860000E50C940050E7B4
:01038D00224D
:0300000002038E6A
:0C038E00787FE4F6D8FD7581200203D5CD
:10043C00BB010689828A83E0225002E722BBFE02BE
:09044C00E32289828A83E49322F1
:10039A0002047BE493A3F8E493A34003F68001F2FA
:1003AA0008DFF48029E493A3F85407240CC8C33364
:1003BA00C4540F4420C8834004F456800146F6DF33
:1003CA00E4800B0102040810204080900483E47E3C
:1003DA00019360BCA3FF543F30E509541FFEE49328
:1003EA00A360010ECF54C025E060A840B8E493A3EF
:1003FA00FAE493A3F8E493A3C8C582C8CAC583CA1A
:10040A00F0A3C8C582C8CAC583CADFE9DEE780BED1
:010488000073
:00000001FF
