:0B04C7001200031204A012048D80FB41
:10038900C0F9A4B0999282F880908883C6A1868E1C
:10039900C0F9E439D9D23D07C0D0C8C3C6E1C6CE39
:1003A900C2C9F6FFFFC7C9C9C0CCC0CCD2FEC1FFC4
:1003B900C9FFFFF6FFFFE7E7E7E7E7FFE7E7E7E75B
:1003C900FFE7E7E7DFE7BDFF39FFF97EFFE7EF6703
:0C03D900E7BDFFFF5F5CBADB0001101104
:0400030075BB302277
:10031600900004EDF0A3EBF0EF24FFB392C0D2C13E
:10032600D2C4D2C5D284900004E09003BD93F5A058
:10033600C284120429D285900004E0900399120425
:1003460024D2C0900005E024FFB392C1D2C41204A7
:100356001BD2C0D2C1900007E024FFB392C412049E
:100366001BD2C0D2C1D2C4900009E024FFB392C50B
:10037600D285A3E090038993F5A0C2857F027E0013
:0303860002042D41
:04024200AB07AA0656
:10024600D3EB9400EA9400500CC3EB940FEA942786
:1002560040030202F77C037DE8AF03AE021201D32E
:10026600900000EFF07C037DE8AF03AE021201D3ED
:100276007E007F64CFCDCFCECCCE1201D3A3EFF0DC
:100286007C037DE8AF03AE021201D37E007F64CF0C
:10029600CDCFCECCCE1201D37E007F0ACFCDCFCE2E
:1002A600CCCE1201D3A3EFF0AE02AF037C037DE800
:1002B6001201D37E007F64CFCDCFCECCCE1201D338
:1002C6007E007F0ACFCDCFCECCCE1201D3AF059024
:1002D6000000E0FDA3E0900006F0A37401F090009A
:1002E60002E0900008F0A37401F0A3EFF07B018018
:1002F600199000067409F0A37401F0A37409F0A321
:0F0306007401F0A37409F07B01FD7F011203164F
:0103150022C5
:10041B00D2C5D285A3E090038993F5A0C2857F0254
:02042B007E0051
:10042D00D3EF9400EE940040147D997C03ED1D7084
:0D043D00011CED4C70F7EF1F70E61E80E310
:01044A00228F
:0F04A000758901E4F58CF58AD28CD2A9D2AF22EE
:03000B0002047874
:10047800C0E0C083C082900011E4F0A304F0D082F1
:05048800D083D0E0323A
:0B04D200EF1FAC0670011E4C70F622FC
:0C04AF00D2B47F067E001204D2C2B42238
:1003E500AF8CEFFEAD8A7C00E42DFFEC3E90000B58
:1003F500F0A3EFF0E4F58CF58A90000BE0FCA3E0A8
:10040500FDE41201197B967A43798B783C12000E34
:0604150090000D0202360A
:10044B00900011E07004A3E06401700C900011F0B7
:10045B00A3F07F0F7E27801190000DE0FCA3E0FD41
:0D046B00A3E0FEA3E0FF12015212024222A4
:10048D001204AF30B3FDD28C20B3FDC28C1203E544
:03049D0002044B0B
:10000E00EC4D6011E8497017ED33EC3304600DE4EC
:10001E00FCFFFEFD22E933E8330470F80201BE1244
:10002E00018958046009E4CC248150062850090245
:10003E0001C82840030201C5C0E0EB4A7044B980F4
:10004E0006D0E0FB0201B4EF4E701CBD8008EBFF42
:10005E00EAFEE9FD80EBE98DF0A4FEE5F00200F783
:10006E00E9CDF9EAFEEBFFEF89F0A4FCE5F0CE89CD
:10007E00F0A42EFFE435F0CD89F0A42DFEE435F08A
:10008E008067EF4E7005BD80D780C3EF8BF0A4ACB8
:10009E00F0EE8BF0A42CFCE435F0F8EF8AF0A42CF3
:1000AE00E5F038FCE433CB8DF0A42CFCE5F03BF806
:1000BE00EE8AF0A42CFCE5F038F8E433CF89F0A4F6
:1000CE002CFCE5F038CF3400CE89F0A42FFFE5F0FC
:1000DE003EFEE433C98DF0A42EFEE5F039CD8AF054
:1000EE00A42FFFE5F03EFEE43DFD33D0E0FB5007CC
:1000FE000BBB000F0201C8EC2CFCEF33FFEE33FEFE
:06010E00ED33FD0201A02B
:1001140075F020800E75F010800575F0087D007E66
:10012400007F003392D530D503120228EC334010FF
:10013400EF33FFEE33FEED33FDEC33FCD5F0ED226F
:0E014400E5F0247EA2D513CC92E7CDCEFF22AB
:10015200EDD2E7CD33EC3392D524814006E4FFFEA5
:10016200FDFC22FCE4CFCECDCC24E0501174FF8004
:10017200EDC3CC13CCCD13CDCE13CECF13CF0470A1
:07018200F030D5DE02022877
:10018900E9D2E7C933E833F892D5EDD2E7CD33ECBC
:0701990033FC5002B2D52235
:1001A000EC30E7100FBF000C0EBE00080DBD0004C0
:1001B0000BEB6014A2D5EB13FCED92E7FD2274FF6C
:1001C000FCFDFEFF22E480F8A2D574FF13FC7D80C5
:0301D000E480EFD9
:030000000204BB3C
:0C04BB00787FE4F6D8FD7581070204C7C5
:1001D300BC000BBE0029EF8DF084FFADF022E4CC10
:1001E300F875F008EF2FFFEE33FEEC33FCEE9DECD9
:1001F300984005FCEE9DFE0FD5F0E9E4CEFD22ED1F
:10020300F8F5F0EE8420D21CFEADF075F008EF2F68
:10021300FFED33FD4007985006D5F0F222C398FD59
:050223000FD5F0EA22F6
:0E022800C3E49FFFE49EFEE49DFDE49CFC22E7
:0C023600ECF0A3EDF0A3EEF0A3EFF0223B
:00000001FF
