:0B02FE0012030912026D1201FB80FBCD
:0B02D8007E001202E3D2917F017E0045
:0F02E300EF1FAC0670011E4C6004000080F22279
:10026D007B017A00EB4A6022C2917FE07E0112028F
:10027D00E3D2917F3C7E001202E3A291E4337A0037
:0A028D00FB7FA47E011202E380DA79
:010297002244
:0202BC00AD078C
:1002BE00E4FBC2911202DFD291EDC313FD92917F46
:0902CE00141202D80BEBB408E98C
:0102D7002204
:10029800E4FDFBEDC313FDC2917F011202D830913A
:1002A80004ED4480FD7F3C7E001202E30BEBB408B2
:0302B800E2AF05AD
:0102BB002220
:1001FB0012026D7FCC1202BC7F441202BC3091FD07
:10020B0012026D7FCC1202BC7FBE1202BC1202988E
:10021B00A907120298E954F0C4540FF97E00EFC4F9
:10022B00F8540FC868FFEEC454F048FEEF49FF02C4
:02023B000003BE
:10014A00C0F9A4B0999282F880908883C6A1868E5D
:10015A00C0F9E439D9D23D07C0D0C8C3C6E1C6CE7A
:10016A00C2C9F6FFFFC7C9C9C0CCC0CCD2FEC1FF05
:10017A00C9FFFFF6FFFFE7E7E7E7E7FFE7E7E7E79C
:10018A00FFE7E7E7DFE7BDFF39FFF97EFFE7EF6744
:0C019A00E7BDFFFF5F5CBADB0001101145
:0403090075BB30226E
:1000D700900004EDF0A3EBF0EF24FFB392C0D2C180
:1000E700D2C4D2C5D284900004E090017E93F5A0DB
:1000F700C28412024BD285900004E090015A12028A
:1001070046D2C0900005E024FFB392C1D2C41202C8
:100117003DD2C0D2C1900007E024FFB392C41202BF
:100127003DD2C0D2C1D2C4900009E024FFB392C52A
:10013700D285A3E090014A93F5A0C2857F027E0095
:0301470002024F62
:04000300AB07AA0697
:10000700D3EB9400EA9400500CC3EB940FEA9427C7
:1000170040030200B87C037DE8AF03AE021201A6DD
:10002700900000EFF07C037DE8AF03AE021201A65B
:100037007E007F64CFCDCFCECCCE1201A6A3EFF04A
:100047007C037DE8AF03AE021201A67E007F64CF7A
:10005700CDCFCECCCE1201A67E007F0ACFCDCFCE9C
:10006700CCCE1201A6A3EFF0AE02AF037C037DE86E
:100077001201A67E007F64CFCDCFCECCCE1201A6D3
:100087007E007F0ACFCDCFCECCCE1201A6AF059092
:100097000000E0FDA3E0900006F0A37401F09000DB
:1000A70002E0900008F0A37401F0A3EFF07B018059
:1000B700199000067409F0A37401F0A37409F0A362
:0F00C7007401F0A37409F07B01FD7F011200D7D3
:0100D6002207
:10023D00D2C5D285A3E090014A93F5A0C2857F0275
:02024D007E0031
:10024F00D3EF9400EE940040147D997C03ED1D7064
:0D025F00011CED4C70F7EF1F70E61E80E3F0
:01026C00226F
:030000000202F207
:0C02F200787FE4F6D8FD7581070202FE5B
:1001A600BC000BBE0029EF8DF084FFADF022E4CC3D
:1001B600F875F008EF2FFFEE33FEEC33FCEE9DEC06
:1001C600984005FCEE9DFE0FD5F0E9E4CEFD22ED4C
:1001D600F8F5F0EE8420D21CFEADF075F008EF2F96
:1001E600FFED33FD4007985006D5F0F222C398FD87
:0501F6000FD5F0EA2224
:00000001FF
