:0800880012009012000380FB3E
:10006C00C0F9A4B0999282F880908883C6A1868E3C
:0400900075BB3022EA
:10002D00D2C0EF24FFB392C1ED24FFB392C4EB24F1
:10003D00FFB392C5D285E50D90006C93F5A0C285F6
:01004D002290
:10000300E4F508F50985090D7B017D017F011200E7
:100013002D7FE87E0312004E0509E50970020508ED
:09002300C39410E508940040DCD0
:01002C0022B1
:10004E00D3EF9400EE940040147D997C03ED1D7067
:0D005E00011CED4C70F7EF1F70E61E80E3F3
:01006B002272
:0300000002007C7F
:0C007C00787FE4F6D8FD75810D02008845
:00000001FF
