:0C02060012021E7FD27E0412000380F75B
:10012F00C0F9A4B0999282F880908883C6A1868E78
:10013F00C0F9E439D9D23D07C0D0C8C3C6E1C6CE95
:10014F00C2C9F6FFFFC7C9C9C0CCC0CCD2FEC1FF20
:10015F00C9FFFFF6FFFFE7E7E7E7E7FFE7E7E7E7B7
:10016F00FFE7E7E7DFE7BDFF39FFF97EFFE7EF675F
:08017F00E7BDFFFF5F5CBADB86
:04021E0075BB30225A
:1000BE008D0C8B0DEF24FFB392C0D2C1D2C4D2C52A
:1000CE00D285E50C90013F1201DFD284E50C900140
:1000DE006393F5A0C2841201E4D2C0E50D24FFB3F0
:1000EE0092C1D2C4D2C5D285E50E1201DCD2C0D2E5
:1000FE00C1E50F24FFB392C4D2C5D285E51012011B
:10010E00DCD2C0D2C1D2C4E51124FFB392C5D285D0
:10011E00E51290012F93F5A0C2857F027E000201A9
:01012E00E8E8
:04000300AB07AA0697
:10000700D3EB9400EA9400500CC3EB940FEA9427C7
:1000170040030200A57C037DE8AF03AE021201870F
:100027008F087C037DE8AF03AE021201877E007F55
:1000370064CFCDCFCECCCE1201878F097C037DE86C
:10004700AF03AE021201877E007F64CFCDCFCECC47
:10005700CE1201877E007F0ACFCDCFCECCCE120144
:10006700878F0AAE02AF037C037DE81201877E000B
:100077007F64CFCDCFCECCCE1201877E007F0ACF53
:10008700CDCFCECCCE120187AF0585090E750F01F6
:10009700850A107511018F127B01AD088013750E4B
:1000A70009750F017510097511017512097B017D1D
:0600B700097F011200BEEA
:0100BD002220
:0C01DC0090012F93F5A0C2857F027E00E9
:1001E800D3EF9400EE940040147D997C03ED1D70CC
:0D01F800011CED4C70F7EF1F70E61E80E358
:0102050022D6
:03000000020212E7
:0C021200787FE4F6D8FD75811202020628
:10018700BC000BBE0029EF8DF084FFADF022E4CC5C
:10019700F875F008EF2FFFEE33FEEC33FCEE9DEC25
:1001A700984005FCEE9DFE0FD5F0E9E4CEFD22ED6B
:1001B700F8F5F0EE8420D21CFEADF075F008EF2FB5
:1001C700FFED33FD4007985006D5F0F222C398FDA6
:0501D7000FD5F0EA2243
:00000001FF
