:0E01A4001201777BFF7A00790312014280F589
:1001920080542D030202032D5480AAD1EFFCFCEF00
:0201A200D1AAE0
:10017700E4F5D875A27FF5E9F5F975D90875EA8030
:0B01870075FA8075DA42D2DEC28722D2
:0400C7008E0D8F0EFD
:1000CB00751102751258E5121512AE117002151149
:1000DB004E602BE4F50FF510C3E5109412E50F9469
:1000EB000050E3E51090019293F5EAF5FAAF0EAEEE
:0E00FB000D1201BE0510E51070DE050F80DA53
:0101090022D3
:060142008B088A09890AFE
:10014800E4F50BF50CE50C25E0FFE50B33AB08AA4D
:1001580009A90A8F82F58312010AFFAEF0F44E60F6
:0E0168000D1200C7050CE50C70DB050B80D7EF
:010176002266
:0B01BE00EF1FAC0670011E4C70F62213
:10000300001A0000001A0000001100000011000097
:10001300000F0000000F000000110000001400009A
:100023000014000000150000001500000018000077
:1000330000180000001A0000001A0000001A000057
:100043000011000000110000000F0000000F00006D
:100053000011000000110000001100000014000056
:100063000014000000150000001500000018000037
:100073000011000000110000001400000014000033
:10008300001500000015000000180000001A000011
:10009300001A00000011000000110000000F000012
:1000A300000F000000110000001400000014000005
:1000B30000150000001500000018000000180000E3
:0400C300001A00FF20
:030000000201B248
:0C01B200787FE4F6D8FD7581120201A4EC
:10010A00BB0110E58229F582E5833AF583E0F5F033
:10011A00A3E0225009E92582F886F008E622BBFE10
:10012A000AE92582F8E2F5F008E222E5832AF58356
:08013A00E993F5F0A3E993221B
:00000001FF
