:100B7700750BFF750C03750DE37B05E4FD7F101204
:100B870005C3750B06750CFF750D04750EA37B0663
:100B97007D02E4FF120A3DE4FBFA7D027F3C020678
:010BA700C08D
:090C6800D2B6D2B7C2B7C2B6225F
:090C7100C2B6C2B7D2B6D2B72256
:100BEF00E4FEEF30E704D2B78002C2B7D2B6C2B686
:0E0BFF00EF25E0FF0EBE08EAD2B7D2B6C2B6AE
:010C0D0022C4
:100C2C00C2B6D2B7E4FED2B6EF25E0FDA2B7E433EC
:080C3C004DFFC2B60EBE08EE2A
:010C4400228D
:100C0E00D3EF9400EE940040147D997C03ED1D709B
:0D0C1E00011CED4C70F7EF1F70E61E80E327
:010C2B0022A6
:100C45008F18120C687F78120BEFE4FF120BEFAFD1
:070C550018120BEF020C71F5
:100BA800AB0BAA0CA90D851182851083120AC3FF0D
:100BB8008F17120C687F78120BEF7F40120BEFAF84
:070BC80017120BEF020C7184
:100BCF008F17ED24B0FF120C45E51754F0C4540FE6
:100BDF004410FF120C45E517540F4401FF020C455A
:020B45008F25FA
:100B4700E4F526E52624B0FF120C457F01120C457B
:100B57007F10120C45E4F527AF25120BB80527E5E2
:0F0B670027C3948040F20526E526C3940840D4A6
:010B7600225C
:050C7A00E4FF020B4540
:10099C007FF47E01120C0E7FAE120C45E4FF120C9C
:1009AC00457F10120C457F40120C457F81120C457F
:1009BC007FCF120C457FA1120C457FC8120C457FCE
:1009CC00A6120C457FA8120C457F3F120C457FD315
:1009DC00120C45E4FF120C457FD5120C457F80129A
:1009EC000C457FD9120C457FF1120C457FDA120CA5
:1009FC00457F12120C457FDB120C457F40120C45D3
:100A0C007F20120C457F02120C457F8D120C457F06
:100A1C0014120C457FA4120C457FA6120C457FAF17
:100A2C00120C45E4FF120B45120C7AE4FDFF020B8D
:010A3C00CFEA
:03079500AD09FFAC
:080798008F108D118A128B13E2
:1007A000E4F514F515E510D394784005E4F510054B
:1007B00011AD11AF10120BCFE4F514F515E513C40C
:1007C000F8540FC868FFE512C454F048FEE5152F31
:1007D000FFE5143EFE74032FF58274003EF583E4BA
:1007E00093FF120BB80515E51570020514C39408A4
:1007F000E514940040C7E51104FDAF10120BCFE4DF
:10080000F514F515E513C4F8540FC868FFE512C4D4
:1008100054F048FEE5152FFFE5143EFE740B2FF54E
:100820008274003EF583E493FF120BB80515E515BD
:1008300070020514C39408E514940040C774082599
:0308400010F510A0
:010843002292
:0806C0008F088D098B828A83EB
:1006C800D3E5829400E5839400500EC3E582940F2D
:1006D800E583942740030207947C037DE8AF82AE4C
:1006E80083120AF0AB07AA067C037DE8AF82AE83CB
:1006F800120AF07E007F64CFCDCFCECCCE120AF0A6
:100708008E0A8F0B7C037DE8AF82AE83120AF07EDF
:10071800007F64CFCDCFCECCCE120AF07E007F0A08
:10072800CFCDCFCECCCE120AF08E0C8F0DAE83AFCC
:10073800827C037DE8120AF07E007F64CFCDCFCEA5
:10074800CCCE120AF07E007F0ACFCDCFCECCCE120F
:100758000AF08C0E8D0FE50925E0F509FDAF0812AA
:10076800079874082508F508AB0BAA0A12079574B0
:10077800082508F508AB0DAA0C120795740825087A
:0C078800F508AB0FAA0EAD09FF12079890
:010794002242
:080844008F198D1A8A1B8B1C11
:10084C00E4F51DF51EE519D394784005E4F519057A
:10085C001AAD1AAF19120BCFE4F51DF51EE51CC429
:10086C00F8540FC868FFE51BC454F048FEE51E2F72
:10087C00FFE51D3EFE74A32FF58274003EF583E464
:10088C0093FF120BB8051EE51E7002051DC39408DC
:10089C00E51D940040C7E51A04FDAF19120BCFE417
:1008AC00F51DF51EE51CC4F8540FC868FFE51BC404
:1008BC0054F048FEE51E2FFFE51D3EFE74AB2FF5F0
:1008CC008274003EF583E493FF120BB8051EE51EFF
:1008DC007002051DC39408E51D940040C7740825DB
:0308EC0019F519E2
:0108EF0022E6
:0808F0008F1F8D208A218B224D
:1008F800E4F523F524E51FD394784005E4F51F05B6
:1009080020AD20AF1F120BCFE4F523F524E522C458
:10091800F8540FC868FFE521C454F048FEE5242FB9
:10092800FFE5233EFE74432FF58274023EF583E40F
:1009380093FF120BB80524E52470020523C394081D
:10094800E523940040C7E52004FDAF1F120BCFE458
:10095800F523F524E522C4F8540FC868FFE521C43F
:1009680054F048FEE5242FFFE5233EFE744B2FF597
:100978008274023EF583E493FF120BB80524E52444
:1009880070020523C39408E523940040C774082522
:030998001FF51F29
:01099B002239
:0605C3008F088D098B0A70
:1005C900E4F510F511E508D394704005E4F5080544
:1005D90009E4F512F513C3E513950AE512940040F1
:1005E900030206BFE513C454F02508FFAD09120B39
:1005F900CFE4F50EF50F120BA80511E511700205F0
:1006090010050FE50F7002050EC39408E50E94005E
:1006190040E4E513C454F0FFE50824082FFFAD09B1
:10062900120BCFE4F50EF50F120BA80511E51170A9
:10063900020510050FE50F7002050EC39408E50EBB
:10064900940040E4E513C454F02508FFE50904FDCE
:10065900120BCFE4F50EF50F120BA80511E5117079
:10066900020510050FE50F7002050EC39408E50E8B
:10067900940040E4E513C454F0FFE50824082FFF73
:10068900E50904FD120BCFE4F50EF50F120BA805D1
:1006990011E51170020510050FE50F7002050EC373
:1006A9009408E50E940040E40513E5136003020580
:0606B900DF05120205DF5F
:0106BF002218
:060A3D008F088D098B0AF1
:100A4300E4F513F514F511850912E50B2509FFE407
:100A530033FEC3E5129FE5119E5064750F008508B0
:100A630010E50A2508FFE433FEC3E5109FE50F9E5A
:100A73005043E51075F008A4FFAD12120BCFE4F557
:100A830015F516AB0CAA0DA90E85148285138312D6
:100A93000BB40514E514700205130516E516700270
:100AA3000515C39408E515940040D80510E51070AA
:0F0AB300B0050F80AC0512E512708F0511808B16
:010AC2002211
:1000030000E010080810E000000F102020100F007F
:10001300001010F8000000000020203F2020000006
:10002300007008080888700000302824222130005E
:1000330000300888884830000018202020110E0066
:100043000000C02010F8000000070424243F24000F
:1000530000F80888880808000019212020110E00E4
:1000630000E0108888180000000F112020110E00F6
:1000730000380808C83808000000003F00000000EE
:100083000070880808887000001C222121221C00AF
:1000930000E010080810E0000000312222110F00D8
:1000A30000008080808000000019242222223F204B
:1000B30008F8008080000000003F112020110E008E
:1000C3000000008080800000000E1120202011001D
:1000D300000000808088F800000E112020103F20CF
:1000E3000000808080800000001F22222222130053
:1000F300008080F0888888180020203F202000009E
:100103000000808080808000006B94949493600052
:1001130008F8008080800000203F210000203F205D
:1001230000809898000000000020203F202000005D
:10013300000000809898000000C08080807F00004D
:1001430008F8000080808000203F24022D3020002A
:10015300000808F8000000000020203F20200000D5
:100163008080808080808000203F20003F20003FEF
:100173008080008080800000203F210000203F20FD
:100183000000808080800000001F202020201F00AE
:10019300808000808000000080FFA12020110E00DD
:1001A3000000008080808000000E112020A0FF80CE
:1001B300808080008080800020203F21200001007B
:1001C30000008080808080000033242424241900D0
:1001D300008080E0808000000000001F20200000DD
:1001E3008080000000808000001F202020103F201E
:1001F300808080000080808000010E3008060100AE
:1002030080800080008080800F300C030C300F0052
:1002130000808000808080000020312E0E3120007D
:10022300808080000080808080818E7018060100AD
:1002330000808080808080000021302C22213000CB
:100243000000C038E0000000203C230202273820D1
:1002530008F8888888700000203F202020110E00B5
:10026300C0300808080838000718202020100800AC
:1002730008F808080810E000203F202020100F0095
:1002830008F88888E8081000203F20202320180061
:1002930008F88888E8081000203F200003000000C9
:1002A300C03008080838000007182020221E02006A
:1002B30008F808000008F808203F210101213F2029
:1002C300000808F8080800000020203F2020000054
:1002D30000000808F8080800C08080807F00000044
:1002E30008F888C028180800203F2001263820007D
:1002F30008F8080000000000203F202020203000E4
:1003030008F8F800F8F80800203F003F003F2000FD
:1003130008F830C00008F808203F200007183F0005
:10032300E01008080810E0000F10202020100F0034
:1003330008F808080808F000203F21010101000027
:10034300E01008080810E0000F18242438504F006C
:1003530008F8888888887000203F2000030C30202C
:1003630000708808080838000038202121221C006A
:10037300180808F8080818000000203F20000000B3
:1003830008F808000008F808001F202020201F009C
:100393000878880000C83808000007380E010000FC
:1003A300F80800F80008F800033C0700073C0300C6
:1003B300081868808068180820302C03032C30202C
:1003C3000838C800C83808000000203F200000009B
:1003D30010080808C83808002038262120201800F3
:1003E3008060F80700FC2424A67D242424FC00005C
:1003F3000000FF804021110D037D99959199E00044
:100403008060F80700007F49497F49497F00000069
:100413000000FF00FF497F49FF00FF497F49FF00BC
:1004230000FC0000FF0002E22222FE2222E2020080
:10043300008740300F00001F0000FF08100F00006E
:10044300100C048414640506F404040404140C005E
:10045300048484444724140C070C142444840400A7
:1004630002FA8282FE804020504C434C50204000D0
:1004730008184884443F404458414E605847400060
:100483001010D0FF901000FC24E4242223E200008B
:10049300040300FF0083601F80412618264180006B
:1004A300000000000000000000000000003C666641
:1004B300663C7870E0E0E0C0C0E0E0F070783C6655
:1004C30066663C0000000000000000000000000021
:1004D30000C0E02020E0E0E070703038381CFFFFFF
:1004E300FF0E0707030301010101030307070EFFC3
:1004F300FFFF1C3838307070E0E0E02020E0C000DF
:10050300000103F6F603010000000000007C6DC546
:10051300457C78E0E0C0C0C0C0C0E0E0E0787C4546
:10052300C56D7C0000000000000103F6F603010026
:100533000080C06F6FC0C0E0E060707038381C1C72
:100543001C0E0E07070303FBFB030307070E0E1C1A
:100553001C1C3838707060E0E0C0C06F6FC0800052
:10056300000307040407030000000000000000006C
:1005730000000000000000FFFF000000000000007A
:10058300000000000000000000030704040703004C
:100593000000000000000000000000000000000058
:1005A30000000000003C7E66667E3C000000000008
:1005B3000000000000000000000000000000000038
:03000000020C5C93
:0C0C5C00787FE4F6D8FD758127020B7745
:100AC300BB010CE58229F582E5833AF583E02250E8
:100AD30006E92582F8E622BBFE06E92582F8E22232
:0D0AE300E58229F582E5833AF583E493224C
:100AF000BC000BBE0029EF8DF084FFADF022E4CCEA
:100B0000F875F008EF2FFFEE33FEEC33FCEE9DECB2
:100B1000984005FCEE9DFE0FD5F0E9E4CEFD22EDF8
:100B2000F8F5F0EE8420D21CFEADF075F008EF2F42
:100B3000FFED33FD4007985006D5F0F222C398FD33
:050B40000FD5F0EA22D0
:00000001FF
