:1000CD001200AE7DEC7CFF7F147E0012000380F3E6
:1000AE00E4F5D8F5E9F5F975D90A75EAFF75FAFFA1
:0F00BE0075DA4275EBFF75FBFF75DB42D2DE2270
:10004000EF14601314600A2402700CD280C2818005
:100050000AC280D2818004D280D281EDC394004054
:100060000FEDD394325009C374FA9DF5EAF5FA22E4
:0700700075EAFF75FAFF229B
:10007700EF14601314600A2402700CD282C28380CA
:100087000AC282D2838004D282D283EDC394004015
:100097000FEDD394325009C374FA9DF5EBF5FB22AB
:0700A70075EBFF75FBFF2262
:10000300AB05AA04C3EE648094804006AD077F026B
:10001300800BC3E49FFFE49EFEAD07E4FF120040A4
:10002300C3EA648094804006AD037F02800BC3E47F
:0D0033009BFBE49AFAAD03E4FF1200772274
:030000000200DD1E
:0C00DD00787FE4F6D8FD7581070200CDA5
:00000001FF
