:0E0498001204891204A61204AD12032E80FB7A
:0400060041000500B0
:0F048900758902E4F58AF58CD2A9D2AFD28C2204
:03000B0002047676
:10047600C0E0C083C082900000E004F0D082D08348
:03048600D0E03291
:0704A600D288D2A8D2AF22D8
:0300030002027482
:10027400C0E0C083C082C0D075D000C00790000425
:10028400E06035900000E0FFC3943F5008EF9420F5
:100294004003A3E4F0900001E02406F582E4340076
:1002A400F583EFF0900000E4F0A3E004F0E0B42163
:1002B40012E4F0A304F0800B9000047401F09000A9
:0E02C40000E4F0D007D0D0D082D083D0E0325A
:1003D9007E01E4FDE4FCEFC313FF74062EF582E40D
:1003E9003400F583E0D394074004EF4480FF0E0CFA
:1003F900ECB409E274272DF582E43400F583EFF0BB
:0D040900E4FF0DEDB404CD9000037401F08C
:0104160022C3
:10038900900029E012024E03B22203BE2B03B6618C
:1003990003C66303CEA803D6A903D2AA03CAAB0333
:1003A900C2E103BAE3000003D6E4FF80227F0180A3
:1003B9001E7F02801A7F0380167F0480127F0580CA
:0F03C9000E7F06800A7F0780067F0880027F096B
:0103D8002202
:10044700900002E0B40105E4F01203D9900003E044
:10045700B4010AE4F0120389900005EFF09000055B
:0F046700E0FF7E0012000E900005E0FF7E0022F5
:10032E00120447EE7051EFB40A00504B900341F89F
:10033E0028287302035F0203610203650203690248
:10034E00036D02037102037502037902037D02033A
:10035E0081802475807F227580BF227580DF227593
:10036E0080EF227580F7227580FB227580FD227545
:0A037E0080FE22E4F580227580FF66
:010388002252
:1002D200C0F9A4B0999282F880908883C6A1868ED4
:1002E200C0F9E439D9D23D07C0D0C8C3C6E1C6CEF1
:1002F200C2C9F6FFFFC7C9C9C0CCC0CCD2FEC1FF7C
:10030200C9FFFFF6FFFFE7E7E7E7E7FFE7E7E7E712
:10031200FFE7E7E7DFE7BDFF39FFF97EFFE7EF67BA
:0C032200E7BDFFFF5F5CBADB00011011BB
:0404AD0075BB3022C9
:1001750090002FEDF0A3EBF0EF24FFB392C0D2C1B6
:10018500D2C4D2C5D28490002FE090030693F5A087
:10019500C284120425D28590002FE09002E2120459
:1001A50020D2C0900030E024FFB392C1D2C4120423
:1001B50017D284900036E090032A93F5A0C28412EA
:1001C5000425D2C0D2C1900032E024FFB392C412FC
:1001D5000417D2C0D2C1D2C4900034E024FFB39238
:1001E500C5D285A3E09002D293F5A0C2857F027E99
:0401F50000020429D7
:04000E00AB07AA068C
:10001200D3EB9400EA9400500CC3EB940FEA9427BC
:1000220040030200C67C037DE8AF03AE021201F971
:1000320090002BEFF07C037DE8AF03AE021201F9D2
:100042007E007F64CFCDCFCECCCE1201F9A3EFF0EC
:100052007C037DE8AF03AE021201F97E007F64CF1C
:10006200CDCFCECCCE1201F97E007F0ACFCDCFCE3E
:10007200CCCE1201F9A3EFF0AE02AF037C037DE810
:100082001201F97E007F64CFCDCFCECCCE1201F922
:100092007E007F0ACFCDCFCECCCE1201F9AF059034
:1000A200002BE0FDA3E0900031F0A37401F090007A
:1000B2002DE0900033F0A37401F0A3EFF0E4A3F07D
:1000C2007B01801D9000317409F0A37401F0A374C8
:1000D20009F0A37401F0A37409F0E4A3F07B017D9D
:0600E200097F0112017507
:0100E80022F5
:10041700D2C5D285A3E09002D293F5A0C2857F0210
:020427007E0055
:10042900D3EF9400EE940040147D997C03ED1D7088
:0D043900011CED4C70F7EF1F70E61E80E314
:010446002293
:030000000200E912
:0C00E900787FE4F6D8FD75810702013035
:1001F900BC000BBE0029EF8DF084FFADF022E4CCEA
:10020900F875F008EF2FFFEE33FEEC33FCEE9DECB2
:10021900984005FCEE9DFE0FD5F0E9E4CEFD22EDF8
:10022900F8F5F0EE8420D21CFEADF075F008EF2F42
:10023900FFED33FD4007985006D5F0F222C398FD33
:050249000FD5F0EA22D0
:10024E00D083D082F8E4937012740193700DA3A33F
:10025E0093F8740193F5828883E473740293686053
:06026E00EFA3A3A380DF53
:1000F500020498E493A3F8E493A34003F68001F285
:1001050008DFF48029E493A3F85407240CC8C3330B
:10011500C4540F4420C8834004F456800146F6DFDA
:10012500E4800B0102040810204080900006E47E64
:10013500019360BCA3FF543F30E509541FFEE493CF
:10014500A360010ECF54C025E060A840B8E493A396
:10015500FAE493A3F8E493A3C8C582C8CAC583CAC1
:10016500F0A3C8C582C8CAC583CADFE9DEE780BE79
:01000A0000F5
:00000001FF
