:0B024A0012025512026712025F80FBD7
:0A025500759D0175BCE0E4F5BD22C3
:10022B0043BC08E5BC5410C4540FB4010553BCEFD8
:02023B00AFBD55
:01023D00229E
:08025F0012022B7E00020003D5
:10014A00C0F9A4B0999282F880908883C6A1868E5D
:10015A00C0F9E439D9D23D07C0D0C8C3C6E1C6CE7A
:10016A00C2C9F6FFFFC7C9C9C0CCC0CCD2FEC1FF05
:10017A00C9FFFFF6FFFFE7E7E7E7E7FFE7E7E7E79C
:10018A00FFE7E7E7DFE7BDFF39FFF97EFFE7EF6744
:0C019A00E7BDFFFF5F5CBADB0001101145
:0402670075BB302211
:1000D700900004EDF0A3EBF0EF24FFB392C0D2C180
:1000E700D2C4D2C5D284900004E090017E93F5A0DB
:1000F700C284120209D285900004E090015A1202CC
:1001070004D2C0900005E024FFB392C1D2C412010B
:10011700FBD2C0D2C1900007E024FFB392C4120102
:10012700FBD2C0D2C1D2C4900009E024FFB392C56C
:10013700D285A3E090014A93F5A0C2857F027E0095
:0301470002020DA4
:04000300AB07AA0697
:10000700D3EB9400EA9400500CC3EB940FEA9427C7
:1000170040030200B87C037DE8AF03AE021201A6DD
:10002700900000EFF07C037DE8AF03AE021201A65B
:100037007E007F64CFCDCFCECCCE1201A6A3EFF04A
:100047007C037DE8AF03AE021201A67E007F64CF7A
:10005700CDCFCECCCE1201A67E007F0ACFCDCFCE9C
:10006700CCCE1201A6A3EFF0AE02AF037C037DE86E
:100077001201A67E007F64CFCDCFCECCCE1201A6D3
:100087007E007F0ACFCDCFCECCCE1201A6AF059092
:100097000000E0FDA3E0900006F0A37401F09000DB
:1000A70002E0900008F0A37401F0A3EFF07B018059
:1000B700199000067409F0A37401F0A37409F0A362
:0F00C7007401F0A37409F07B01FD7F011200D7D3
:0100D6002207
:1001FB00D2C5D285A3E090014A93F5A0C2857F02B8
:02020B007E0073
:10020D00D3EF9400EE940040147D997C03ED1D70A6
:0D021D00011CED4C70F7EF1F70E61E80E332
:01022A0022B1
:0300000002023EBB
:0C023E00787FE4F6D8FD75810702024AC3
:1001A600BC000BBE0029EF8DF084FFADF022E4CC3D
:1001B600F875F008EF2FFFEE33FEEC33FCEE9DEC06
:1001C600984005FCEE9DFE0FD5F0E9E4CEFD22ED4C
:1001D600F8F5F0EE8420D21CFEADF075F008EF2F96
:1001E600FFED33FD4007985006D5F0F222C398FD87
:0501F6000FD5F0EA2224
:00000001FF
