:10037C001203A41203E8120328D2871200BE750DD3
:10038C0010750E01750F117510017511117B017D22
:08039C00207F011201E580E65B
:1003BF0080542E0F00000F2E5480ABD2EEFFFFEEB5
:0203CF00D2ABAF
:1003A400E4F5D875A27FF5E9F5F975D90875EA8001
:0B03B40075FA8075DA42D2DEC28722A3
:0402B0008E088F091C
:1002B400750C02750D58E50D150DAE0C7002150C7C
:1002C4004E602BE4F50AF50BC3E50B9411E50A9493
:1002D4000050E3E50B9003BF93F5EAF5FAAF09AEDE
:0E02E400081203DD050BE50B70DE050A80DA5B
:0102F20022E9
:0602F3008B128A1389142E
:1002F900E4F515F516E51625E0FFE51533AB12AA69
:1003090013A9148F82F5831201A2FFAEF0F44E6097
:0E0319000D1202B00516E51670DB051580D733
:0103270022B3
:100328007F1A7E001202B07F017E0012035E7F18E2
:100338007E001202B07F017E0012035E7F157E00F0
:0A0348001202B07F017E0002035E86
:0B03DD00EF1FAC0670011E4C70F622F2
:10025600C0F9A4B0999282F880908883C6A1868E50
:1002660086C7C0F9E439D9D23D07C0D0C8C3C6E1B4
:10027600C6CEC2C9F6FFFFC7C9C9C0CCC0CCD2FE24
:10028600C1FFC9FFFFF6FFFFE7E7E7E7E7FFE7E79D
:10029600E7E7FFE7E7E7DFE7BDFF39FFF97EFFE7BF
:0A02A600EF67E7BDFFFF5F5CBADB06
:0403E80075BB30228F
:0B01DA00F5107511117B017D207F01E5
:1001E5008D0B8B0CEF24FFB392C0D2C1D2C4D2C504
:1001F500D285E50B900268120355D284E50B900277
:100205008C93F5A0C28412035AD2C0E50C24FFB327
:1002150092C1D2C4D2C5D285E50D120352D2C0D245
:10022500C1E50E24FFB392C4D2C5D285E50F1203F2
:1002350052D2C0D2C1D2C4E51024FFB392C5D28533
:10024500E51190025693F5A0C2857F027E00020358
:010255005E4A
:04000300AB07AA0697
:10000700D3EB9400EA9400500CC3EB940FEA9427C7
:1000170040030200A57C037DE8AF03AE0212014D49
:100027008F177C037DE8AF03AE0212014D7E007F80
:1000370064CFCDCFCECCCE12014D8F187C037DE897
:10004700AF03AE0212014D7E007F64CFCDCFCECC81
:10005700CE12014D7E007F0ACFCDCFCECCCE12017E
:100067004D8F19AE02AF037C037DE812014D7E0070
:100077007F64CFCDCFCECCCE12014D7E007F0ACF8D
:10008700CDCFCECCCE12014DAF0585180D750E0123
:1000970085190F7510018F117B01AD178013750D31
:1000A70009750E01750F097510017511097B017D21
:0600B700097F011201E5C2
:0100BD002220
:1000BE0075080075090AE5091509AE0870021508DC
:1000CE004E6014750D10E4F50E750F10F5107511C8
:1000DE0011FB1201E180DF75080075090AE50915AB
:1000EE0009AE08700215084E600E750D10E4F50E7F
:1000FE00750F111201DA80E575080075090AE50918
:10010E001509AE08700215084E600F750D10750EAC
:10011E0001750F11E41201DA80E475080075090A01
:10012E00E5091509AE08700215084E6011750D101F
:0E013E00750E01750F117510011201DC80E2C3
:01014C002290
:0C03520090025693F5A0C2857F027E0049
:10035E00D3EF9400EE940040147D997C03ED1D7054
:0D036E00011CED4C70F7EF1F70E61E80E3E0
:01037B00225F
:030000000203D127
:0C03D100787FE4F6D8FD75811902037CEA
:10014D00BC000BBE0029EF8DF084FFADF022E4CC96
:10015D00F875F008EF2FFFEE33FEEC33FCEE9DEC5F
:10016D00984005FCEE9DFE0FD5F0E9E4CEFD22EDA5
:10017D00F8F5F0EE8420D21CFEADF075F008EF2FEF
:10018D00FFED33FD4007985006D5F0F222C398FDE0
:05019D000FD5F0EA227D
:1001A200BB0110E58229F582E5833AF583E0F5F09B
:1001B200A3E0225009E92582F886F008E622BBFE78
:1001C2000AE92582F8E2F5F008E222E5832AF583BE
:0801D200E993F5F0A3E9932283
:00000001FF
